S01700004763634170706C69636174696F6E312E737265635B
S11300000C942A000C9447000C9447000C9447006D
S11300100C9447000C9447000C9447000C94470040
S11300200C9447000C9447000C9447000C94470030
S11300300C9447000C9447000C9447000C94470020
S11300400C9447000C9447000C9447000C94470010
S11300500C94470011241FBECFE5D8E0DEBFCDBF0E
S113006010E0A0E6B0E0ECEDF6E002C005900D92E1
S1130070A436B107D9F720E0A4E6B0E001C01D9290
S1130080A836B207E1F70E945C000C946C030C9450
S11300900000FC010FB6F894609164007091650053
S11300A080916600909167000FBE309721F06083C5
S11300B071838283938308958D9A8FEF8ABB1BBAD1
S11300C01DBC1CBC83EC99E097BD86BD82E88FBD46
S11300D08BE18EBD81E090E0C1E4D0E00F2EFFEA19
S11300E02F2E312CF02D0F2EF5E08F2EF02D912C8C
S11300F00F2EFCE2EF2EFF24F394F02D0F2EFAE0E6
S1130100AF2EF02D0F2EF5E0BF2EF02D612C0F2E0B
S1130110FAEACF2ED12CF02D01E010E0412C0F2E65
S1130120F9E05F2EF02D712C05C08730910511F494
S1130130802F912FDBBDCABD23B32130B1F7EFE08F
S1130140F7E23197F1F700C0000023B3213069F7DB
S11301508330910509F476C044F48130910581F02F
S11301608230910509F448C0E0CF8530910509F447
S113017024C10CF4D0C08630910509F479C1D5CFDF
S113018080E090E00E944900CB010E94FE020E94A0
S1130190F902682D792D0E94850201969C01220F97
S11301A0331F820F931F9C01220F331F41E450E041
S11301B05BBD4ABD332364F080E090E0EFECF7E0F0
S11301C03197F1F700C00000019628173907B4F7FA
S11301D04C3D510571F4FBBCEABCFFEF29E688E114
S11301E0F15020408040E1F700C0000082E0942DEF
S11301F0A1CF4F5F5F4FDCCFDBBDCABD9FEFE9E608
S1130200F8E19150E040F040E1F700C00000FBBC91
S1130210EABC5BBA2FEF8DE399E421508040904013
S1130220E1F700C0000086E08BBBEFEFF3ED20E3C5
S1130230E150F0402040E1F700C000001BBA83E029
S1130240972D78CFDBBDCABD8FEF99E6E8E18150E9
S11302509040E040E1F700C000003BBC2ABCFFEF47
S113026029E688E1F15020408040E1F700C0000019
S1130270DBBDCABD80E090E00E944900CB010E9432
S1130280FE020E94F902682D792D0E9485020196D2
S11302909C01220F331F820F931F9C01220F331FD7
S11302A041E450E05BBD4ABD332364F080E090E05C
S11302B0EFECF7E03197F1F700C000000196281742
S11302C03907B4F74C3D510519F5FBBCEABCFFEF07
S11302D029E688E1F15020408040E1F700C00000A9
S11302E0ABBA9FEFE3EDF0E39150E040F040E1F76B
S11302F000C00000BBBA2FEF83ED90E32150804093
S11303009040E1F700C000001BBA84E0962D12CFA4
S11303104F5F5F4FC7CFDBBDCABDEFEFF9E628E102
S1130320E150F0402040E1F700C00000FBBCEABC13
S11303308FEF93EDE0E381509040E040E1F700C09F
S1130340000080E090E00E944900CB010E94FE0280
S11303500E94F902682D792D0E94850201969C0164
S1130360220F331F820F931F9C01220F331F4AEA6F
S113037050E05BBD4ABD332364F080E090E0EFECD5
S1130380F7E03197F1F700C000000196281739070C
S1130390B4F74F5F5F4F4D32F1E05F0751F72FEF36
S11303A089E698E1215080409040E1F700C00000C8
S11303B0DBBDCABD882D992DBDCEDBBDCABDEFEF17
S11303C0F4E32CE0E150F0402040E1F700C00000ED
S11303D0DBBCCABC8FEF94E3ECE081509040E0407A
S11303E0E1F700C00000DBBDCABDFFEF24E38CE0F1
S11303F0F15020408040E1F700C00000DBBCCABCE3
S11304009FEFE4E3FCE09150E040F040E1F700C0EE
S11304100000DBBDCABD2FEF84E39CE02150804087
S11304209040E1F700C00000DBBCCABCEFEFF4E38E
S11304302CE0E150F0402040E1F700C00000DBBDBB
S1130440CABD8FEF94E3ECE081509040E040E1F7C7
S113045000C00000FBBCEABCFFEF24E38CE0F150D9
S113046020408040E1F700C0000086E090E062CECA
S1130470DBBDCABD9FEFE9E6F8E19150E040F040F2
S1130480E1F700C00000FBBCEABCABBA2FEF83ED80
S113049090E3215080409040E1F700C00000BBBAD7
S11304A0EFEFF3ED20E3E150F0402040E1F700C02E
S11304B00000ABBA8FEF93EDE0E381509040E04051
S11304C0E1F700C00000BBBAFFEF23ED80E3F15079
S11304D020408040E1F700C00000ABBA9FEFE3ED9D
S11304E0F0E39150E040F040E1F700C00000BBBAF7
S11304F02FEF83ED90E3215080409040E1F700C05E
S113050000001BBA802F912F15CE97FB072E16F4EF
S1130510009407D077FD09D00E94990207FC05D00A
S11305203EF4909581959F4F0895709561957F4F06
S11305300895AA1BBB1B51E107C0AA1FBB1FA61726
S1130540B70710F0A61BB70B881F991F5A95A9F778
S113055080959095BC01CD0108958F929F92AF92A2
S1130560BF92CF92DF92EF92FF92CF93DF93EC0191
S1130570688179818A819B81611571058105910565
S113058021F464E279ED8BE597E02DE133EF41E06E
S113059050E00E94090349015A019B01AC01A7EAFA
S11305A0B1E40E9428036B017C01ACEEB4EFA50119
S11305B094010E943603DC01CB018C0D9D1DAE1D00
S11305C0BF1DB7FF03C00197A109B0488883998371
S11305D0AA83BB839F77DF91CF91FF90EF90DF9049
S11305E0CF90BF90AF909F908F9008950E94AD02DE
S11305F0089580E690E00E94AD020895A0E0B0E086
S11306008093600090936100A0936200B0936300B4
S11306100895052E97FB1EF400940E94200357FDB5
S113062007D00E943B0307FC03D04EF40C94200334
S113063050954095309521953F4F4F4F5F4F08950A
S113064090958095709561957F4F8F4F9F4F08953A
S11306500E945D03A59F900DB49F900DA49F800DF3
S1130660911D11240895B7FF0C9428030E942803B8
S1130670821B930B0895A1E21A2EAA1BBB1BFD013A
S11306800DC0AA1FBB1FEE1FFF1FA217B307E4076D
S1130690F50720F0A21BB30BE40BF50B661F771FC5
S11306A0881F991F1A9469F76095709580959095A5
S11306B09B01AC01BD01CF010895A29FB001B39F7E
S11306C0C001A39F700D811D1124911DB29F700D57
S10F06D0811D1124911D0895F894FFCFA2
S10706DC0100000015
S9030000FC
